{
  "contractName": "State_Variables",
  "abi": [
    {
      "constant": true,
      "inputs": [],
      "name": "age2",
      "outputs": [
        {
          "internalType": "int256",
          "name": "",
          "type": "int256"
        }
      ],
      "payable": false,
      "stateMutability": "view",
      "type": "function"
    },
    {
      "constant": true,
      "inputs": [],
      "name": "age4",
      "outputs": [
        {
          "internalType": "int256",
          "name": "",
          "type": "int256"
        }
      ],
      "payable": false,
      "stateMutability": "view",
      "type": "function"
    },
    {
      "constant": true,
      "inputs": [],
      "name": "getAge1",
      "outputs": [
        {
          "internalType": "int256",
          "name": "",
          "type": "int256"
        }
      ],
      "payable": false,
      "stateMutability": "view",
      "type": "function"
    },
    {
      "constant": true,
      "inputs": [],
      "name": "getAge2",
      "outputs": [
        {
          "internalType": "int256",
          "name": "",
          "type": "int256"
        }
      ],
      "payable": false,
      "stateMutability": "view",
      "type": "function"
    },
    {
      "constant": true,
      "inputs": [],
      "name": "getAge3",
      "outputs": [
        {
          "internalType": "int256",
          "name": "",
          "type": "int256"
        }
      ],
      "payable": false,
      "stateMutability": "view",
      "type": "function"
    },
    {
      "constant": true,
      "inputs": [],
      "name": "getAge4",
      "outputs": [
        {
          "internalType": "int256",
          "name": "",
          "type": "int256"
        }
      ],
      "payable": false,
      "stateMutability": "view",
      "type": "function"
    }
  ],
  "bytecode": "0x6080604052600a6000556014600155601e60025534801561001f57600080fd5b506101818061002f6000396000f3fe608060405234801561001057600080fd5b50600436106100625760003560e01c80630bc05528146100675780630e989a3814610085578063265247b2146100a357806334a43300146100c15780637d73dd34146100df578063f1549d7c146100fd575b600080fd5b61006f61011b565b6040518082815260200191505060405180910390f35b61008d610120565b6040518082815260200191505060405180910390f35b6100ab610126565b6040518082815260200191505060405180910390f35b6100c9610130565b6040518082815260200191505060405180910390f35b6100e761013a565b6040518082815260200191505060405180910390f35b610105610143565b6040518082815260200191505060405180910390f35b602881565b60015481565b6000600254905090565b6000600154905090565b60008054905090565b6000602890509056fea265627a7a723158201efa0716f3fe5d57b438b3bfb5a12286813cc48323cf777ba687ccfa635e3ff064736f6c634300050c0032",
  "source": "pragma solidity ^0.5.0;\r\n\r\ncontract State_Variables {\r\n    int internal age1 = 10;\r\n    int public age2 = 20;\r\n    int private age3 = 30;\r\n    int public constant age4 = 40;\r\n\r\n    function getAge1() public view returns (int) {\r\n        return age1;\r\n    }\r\n\r\n    function getAge2() public view returns (int) {\r\n        return age2;\r\n    }\r\n\r\n    function getAge3() public view returns (int) {\r\n        return age3;\r\n    }\r\n\r\n    function getAge4() public view returns (int) {\r\n        return age4;\r\n    }\r\n}",
  "sourcePath": "C:/Users/Babar/Desktop/Solidity/contracts/First.sol",
  "compiler": {
    "name": "solc",
    "version": "0.5.12+commit.7709ece9.Emscripten.clang"
  },
  "schemaVersion": "3.0.20",
  "updatedAt": "2020-01-17T17:31:10.599Z",
  "devdoc": {
    "methods": {}
  },
  "userdoc": {
    "methods": {}
  }
}